:03000000020800F3
:0C080000787FE4F6D8FD758120020847DF
:10088C00D2FF75D803C2DCC2DB0000000000D2DA54
:10089C000000000000000000000075A2A8D290C269
:1008AC009175CDF185CDCB75CC9A85CCCAD2CAD2F7
:0408BC00ADD2AF22E8
:01095D002277
:0709260001080002090000B6
:1008EE0012088C12095DE5F7543F44C0F5F7D2FFAC
:0E08FE001208C012091A12095E12095F80F07A
:1008C00030000CC2000508050AE50A70020509C3DC
:1008D000E508940574809480400312090CC3E50A6E
:0D08E00094E8E50994034005E4F509F50AE4
:0108ED0022E8
:01095E002276
:0C091A00E50C64017002B291E4F50C22BF
:01095F002275
:03092D00010B00BB
:0D090C00209004750B0122850B0CE4F50B07
:0109190022BB
:030003000209519E
:03095100C2893226
:03000B0002095493
:03095400C28D321F
:0300130002095788
:03095700C28B321E
:03001B0002095A7D
:03095A00C28F3217
:0300230002093B94
:05093B00C299C29832D0
:03002B0002094087
:05094000C2CFD200321D
:03003B0002094572
:040945005395FE3296
:0300430002094966
:040949005395FD3293
:03004B0002094D5A
:04094D005395FB3291
:030053000209316E
:0A0931005395EF5395DF53AFF732F3
:10080C000208EEE493A3F8E493A34003F68001F20C
:10081C0008DFF48029E493A3F85407240CC8C333ED
:10082C00C4540F4420C8834004F456800146F6DFBC
:10083C00E4800B0102040810204080900926E47E1D
:10084C00019360BCA3FF543F30E509541FFEE493B1
:10085C00A360010ECF54C025E060A840B8E493A378
:10086C00FAE493A3F8E493A3C8C582C8CAC583CAA3
:10087C00F0A3C8C582C8CAC583CADFE9DEE780BE5B
:0109300000C6
:00000001FF
